:020000040000fa
:080000000002040000000000f2
:020000040000fa
:10000800da030000c2030000c8030000ce030000aa
:10001800d4030000da030000da030000da0300006a
:10002800da030000da030000da030000a00300008e
:10003800da030000da030000da030000da03000044
:10004800da030000da030000da030000da03000034
:10005800da03000090020000da030000da0300006f
:10006800da030000da030000da030000da03000014
:10007800da030000da030000da030000da03000004
:10008800da030000da030000da030000da030000f4
:10009800da030000da030000da030000da030000e4
:1000a800da030000da030000da030000da030000d4
:1000b800da030000da030000da030000da030000c4
:1000c800da030000da030000da030000da030000b4
:1000d800da030000da030000da030000da030000a4
:1000e800da030000da030000da030000da03000094
:1000f800da030000da030000da030000da03000084
:10010800da030000e8020000da030000da03000066
:10011800da030000da030000da0300008a030000b3
:10012800da030000da030000da030000da03000053
:10013800da030000da030000da030000da03000043
:10014800da030000da030000da030000da03000033
:10015800da030000da030000da030000da03000023
:10016800da030000da030000da030000da03000013
:10017800da030000da030000da030000da03000003
:10018800da030000da030000da030000da030000f3
:10019800da030000da030000da030000da030000e3
:1001a800da030000da030000da030000da030000d3
:1001b800da030000da030000da030000da030000c3
:1001c800da030000da030000da030000da030000b3
:1001d800da030000da030000da030000da030000a3
:1001e800da030000da030000da030000da03000093
:0801f800da030000da03000045
:020000040000fa
:10020800da030000c2030000c8030000ce030000a8
:10021800d4030000da030000da030000da03000068
:10022800da030000da030000da030000a00300008c
:10023800da030000da030000da030000da03000042
:10024800da030000da030000da030000da03000032
:10025800da03000090020000da030000da0300006d
:10026800da030000da030000da030000da03000012
:10027800da030000da030000da030000da03000002
:10028800da030000da030000da030000da030000f2
:10029800da030000da030000da030000da030000e2
:1002a800da030000da030000da030000da030000d2
:1002b800da030000da030000da030000da030000c2
:1002c800da030000da030000da030000da030000b2
:1002d800da030000da030000da030000da030000a2
:1002e800da030000da030000da030000da03000092
:1002f800da030000da030000da030000da03000082
:10030800da030000e8020000da030000da03000064
:10031800da030000da030000da0300008a030000b1
:10032800da030000da030000da030000da03000051
:10033800da030000da030000da030000da03000041
:10034800da030000da030000da030000da03000031
:10035800da030000da030000da030000da03000021
:10036800da030000da030000da030000da03000011
:10037800da030000da030000da030000da03000001
:10038800da030000da030000da030000da030000f1
:10039800da030000da030000da030000da030000e1
:1003a800da030000da030000da030000da030000d1
:1003b800da030000da030000da030000da030000c1
:1003c800da030000da030000da030000da030000b1
:1003d800da030000da030000da030000da030000a1
:1003e800da030000da030000da030000da03000091
:0803f800da030000da03000043
:020000040000fa
:10040000ef8420000ebf20000e01880000000000d5
:100410000c000700a0e520000100200011000700eb
:10042000100020000000e000020032007e0a0200fe
:1004300000000000bc080200000000000040da00dc
:100440000000fe004440a900000720000000e0007a
:100450000300320000002000a00188004440a800f2
:100460000000060091018800800078000000eb0089
:1004700015003700e280400032a0b4009101ba00bc
:10048000e280400032a0b4009102ba00e280400055
:1004900032a0b4000002eb00472bde00f507b200eb
:1004a000602ce10004003a000059eb008301e900f0
:1004b000fdff3e00040037006128e100010032002a
:1004c0000082eb00040007001101ba000200e00006
:1004d000e8ff3a00000006003159ba008301e90044
:1004e0000c0032002159ba008301e90008003200f3
:1004f0000400e00003003a00e280400032a0b400b3
:10050000f5ff370011d9ba008301e900faff3a007c
:100510008100e800e180400032a0b4000000060045
:100520003600f800809fbe00829fbe00841f7800c6
:100530003400f80000002000a0018800131880009b
:1005400073408800221880008240880031188000a3
:100550009140880003004100010040003400200069
:10056000811f7800110009000480d800cf007800b6
:1005700060408800a480200014427800e54f5200bb
:100580000c0036001428ef00808f51000200360066
:1005900013002000a3408800800f510001003600a6
:1005a00014a8ec00808f50000200360040002000ac
:1005b0001428b40085a0a9003400f9004f02780087
:1005c0004f01be004f00be003600f900004006009b
:1005d0003600f800809fbe00829fbe00849fbe0050
:1005e000869fbe003400f80000002000a0018800b3
:1005f0008b20a9000008ab003f003200b040800013
:10060000010a2000810f5000020036004200de0087
:1006100004003700c1042000810f5000070036009d
:100620004400de00320e80000100280081006100dd
:1006300000807000300e88000200370000002800a3
:10064000c621b6000a48ec000ae8b700e54f5000a2
:100650001800360008c8bf000080fb000000400002
:10066000e13f2800e1007800a2408000028168009c
:10067000e13e2800e1007800010061000100320045
:100680000908a80009c8bf000080fb00e14028005d
:100690006140780009e8b7006100600004003200a2
:1006a0000028a9000628ef003502070001003700e6
:1006b0000628ec008038210031408000808f5000f7
:1006c00006003600f0408000e20f500003003a00c0
:1006d00030002000f04088000628ef000408ec00fd
:1006e00020408800f1042000810f500002003600f5
:1006f0004b0207000428ef003400f9004f03be004e
:100700004f02be004f01be004f00be003600f90090
:1007100000400600801f78003400f8000000200030
:10072000a0018800d421ef0030002000f0408800b4
:100730008be0a9003400f9004f007800004006006b
:10074000809fbe003400f80000002000a001880057
:1007500008c8bf000080fb0000004000e13d280009
:10076000e1007800a10e88000a68ef008460a9000b
:1007700005e1a9000021ef003400f9004f00be00a0
:1007800000400600cb02a8008020a900ffff370030
:10079000cb02a8008060a900ffff3700cb02a800b1
:1007a0008040a900ffff3700cb02a8008080a9008d
:0c07b000ffff37000040da000000fe00f0
:020000040000fa
:1007bc0000000000012000000420000004020000e2
:1007cc0010020000100800000108000000000000ea
:1007dc000000000002000000010000000400000006
:1007ec0002000000010000000400000000000000f6
:1007fc000000000000000000ffff000000000000ef
:10080c00ffff000000000000ffff000000000000e0
:10081c000002000004060000080a00000c0e000094
:10082c001012000014160000181a00001c1e000004
:10083c002022000024260000282a00002c2e000074
:10084c000101000001360000013a00003c3e0000ae
:10085c000002000004060000080a00000c0e000054
:10086c000101000001160000011a00001c1e00000e
:10087c000101000001260000012a00002c2e0000be
:10088c000101000001360000013a00003c3e00006e
:020000040000fa
:10089c00c108de000100e00002003a000000eb009d
:1008ac000000060000027800810278000203780044
:1008bc0083037800930280000400780085007800a0
:1008cc00060178000200e00004003200ff3ffc004b
:1008dc00301978008100e900fcff3a000400780030
:1008ec0085007800ff3ffc000008eb000080e8006a
:1008fc008100e900fbff3a000400780085007800d5
:10090c00c804040000000000040078008500780092
:10091c00f405040000000000040078008500780055
:10092c0080060400000000000400780085007800b8
:10093c003007040000000000040078000002eb0007
:10094c0001003700140020008500780006017800b3
:10095c000200e00004003200ff3ffc003218780077
:10096c008100e900fcff3a00040078009302880043
:10097c000000880007f0a700900a040000000000a7
:10098c0000000600ff3ffc001000a700edff370041
:10099c001000a0001000a600eaff37001000a10014
:1009ac001000a700e7ff37001000a0001010a700f0
:1009bc00e4ff37001010a0001010a600e1ff370074
:1009cc001010a1001010a700deff37001010a000bf
:1009dc001020a700dbff37001020a0001020a6007d
:1009ec00d8ff37001020a1001020a700d5ff37003a
:1009fc001020a0001030a700d2ff37001030a0004c
:100a0c001030a600cfff37001030a1001030a70027
:100a1c00ccff37001030a0001040a700c9ff3700f2
:100a2c001040a0001040a600c6ff37001040a100e7
:100a3c001040a700c3ff37001040a0001050a700c3
:100a4c00c0ff37001050a0001050a600bdff3700ab
:100a5c001050a1001050a700baff37001050a00092
:100a6c001060a700b7ff37001060a0001060a60050
:100a7c00b4ff37001060a1001060a700b1ff370071
:100a8c001060a0001070a700aeff37001070a0001f
:100a9c001070a600abff37001070a1001070a700fb
:100aac00a8ff37001070a0001080a700a5ff37002a
:100abc001080a0001080a600a2ff37001080a100bb
:100acc001080a7009fff37001080a0001090a70097
:100adc009cff37001090a0001090a60099ff3700e3
:100aec001090a1001090a70096ff37001090a00066
:100afc0010a0a70093ff370010a0a00010a0a60024
:100b0c0090ff370010a0a10010a0a7008dff3700a8
:100b1c0010a0a00010b0a7008aff370010b0a000f2
:100b2c0010b0a60087ff370010b0a10010b0a700ce
:100b3c0084ff370010b0a00010c0a70081ff370061
:100b4c0010c0a00010c0a6007eff370010c0a1008e
:100b5c0010c0a7007bff370010c0a00010d0a7006a
:100b6c0078ff370010d0a00010d0a60075ff37001a
:100b7c0010d0a10010d0a70072ff370010d0a00039
:100b8c0010e0a7006fff370010e0a00010e0a600f7
:100b9c006cff370010e0a10010e0a70069ff3700e0
:100bac0010e0a00010f0a70066ff370010f0a000c6
:100bbc0010f0a60063ff370010f0a10010f0a700a2
:100bcc0060ff370010f0a0000080e8008100e90011
:100bdc006cff3a008a04040000000000ff3ffc0098
:100bec001000a60057ff37001000a1001000a00055
:100bfc001010a60053ff37001010a1001010a00019
:100c0c001020a6004fff37001020a1001020a000dc
:100c1c001030a6004bff37001030a1001030a000a0
:100c2c001040a60047ff37001040a1001040a00064
:100c3c001050a60043ff37001050a1001050a00028
:100c4c001060a6003fff37001060a1001060a000ec
:100c5c001070a6003bff37001070a1001070a000b0
:100c6c001080a60037ff37001080a1001080a00074
:100c7c001090a60033ff37001090a1001090a00038
:100c8c0010a0a6002fff370010a0a10010a0a000fc
:100c9c0010b0a6002bff370010b0a10010b0a000c0
:100cac0010c0a60027ff370010c0a10010c0a00084
:100cbc0010d0a60023ff370010d0a10010d0a00048
:100ccc0010e0a6001fff370010e0a10010e0a0000c
:100cdc0010f0a6001bff370010f0a10010f0a000d0
:100cec000080e8008100e900bcff3a009204040097
:100cfc00000000000080400000804000ff3ffc002e
:100d0c000080e90010f0a6000eff370010f0a100e3
:100d1c0010f0a00010f0a10010e0a60009ff3700b1
:100d2c0010e0a10010e0a00010e0a10010d0a6007f
:100d3c0004ff370010d0a10010d0a00010d0a100eb
:100d4c0010c0a600fffe370010c0a10010c0a0000c
:100d5c0010c0a10010b0a600fafe370010b0a10020
:100d6c0010b0a00010b0a10010a0a600f5fe370036
:100d7c0010a0a10010a0a00010a0a1001090a6002f
:100d8c00f0fe37001090a1001090a0001090a10070
:100d9c001080a600ebfe37001080a1001080a00090
:100dac001080a1001070a600e6fe37001070a100a4
:100dbc001070a0001070a1001060a600e1fe3700ba
:100dcc001060a1001060a0001060a1001050a600df
:100ddc00dcfe37001050a1001050a0001050a100f4
:100dec001040a600d7fe37001040a1001040a00014
:100dfc001040a1001030a600d2fe37001030a10028
:100e0c001030a0001030a1001020a600cdfe37003d
:100e1c001020a1001020a0001020a1001010a6008e
:100e2c00c8fe37001010a1001010a0001010a10077
:100e3c001000a600c3fe37001000a1001000a00097
:100e4c001000a1008100e900acff3a009a040400f4
:100e5c00000000000080400000804000ff3ffc00cc
:100e6c000080e90010f0a700b6fe370010f0a000db
:100e7c0010f0a10010e0a700b2fe370010e0a000b7
:100e8c0010e0a10010d0a700aefe370010d0a000db
:100e9c0010d0a10010c0a700aafe370010c0a000ff
:100eac0010c0a10010b0a700a6fe370010b0a00023
:100ebc0010b0a10010a0a700a2fe370010a0a00047
:100ecc0010a0a1001090a7009efe37001090a0006b
:100edc001090a1001080a7009afe37001080a0008f
:100eec001080a1001070a70096fe37001070a000b3
:100efc001070a1001060a70092fe37001060a000d7
:100f0c001060a1001050a7008efe37001050a000fa
:100f1c001050a1001040a7008afe37001040a0001e
:100f2c001040a1001030a70086fe37001030a00042
:100f3c001030a1001020a70082fe37001020a00066
:100f4c001020a1001010a7007efe37001010a0008a
:100f5c001010a1001000a7007afe37001000a000ae
:100f6c001000a1008100e900bcff3a00a2040400bb
:100f7c000000000011e1a900c04080000601b4008f
:100f8c00d240800002014100020140004210de000c
:100f9c00d04088000601f8001808f9000621ef007f
:100fac0011e1a8007400b900c3032000110009006e
:100fbc000380d8008000fd00d14188004310de0082
:100fcc0001005000e0408800e10f500002003e009c
:100fdc0010002000e04088001008880005e1a800ff
:100fec000968ef000848ec0008e8b700e64f50002d
:100ffc000200360010c0b30008e8b7005042800071
:10100c00e00f500002003200cb22a800ffff370097
:10101c00000006002008f8002208f900d2408000e9
:10102c00204b2500c1002000811f78001100090011
:10103c004288d800cf007800204188002008f800b2
:10104c003408f900b04188006082200007010700d5
:10105c00c0418000b0408800b00e8800c00e8800ef
:10106c00d00e8800000006000300370094390900f8
:10107c0000000000010078008000e900e00f500043
:10108c00faff3a00000006000848ec0008e8b70038
:10109c00e64f50000200360010c0b30008e8b7005d
:1010ac0008c8bf000080fb0000004000e13d2800a4
:1010bc00e1007800a10e88000968ef00a000200074
:1010cc00e9ff37000000eb00a00e88000008a90023
:1010dc0005e1a90011e1a90030088800c242a9006d
:1010ec0000000000cb02a90000000000cb22a900e8
:1010fc0000000600881f78008001eb003340880058
:10110c002008f8002208f900883e200028418800b9
:10111c006609200086027800e42d2000f241800050
:10112c00e141800060822000c70007000841880070
:10113c0060092000b0408800d00e8800da01f80069
:10114c00d801f900d801f800d601f900803220004e
:10115c003008880030088000c0408800d0408800eb
:10116c000008a8004f047800000006000200fa00f6
:10117c00889fbe008a9fbe008c9fbe00c042a90003
:10118c00c902a900c922a90060428000e00f5000ea
:10119c0002003200cb22a800ffff37004087ab00d3
:1011ac0002003200cb22a800ffff370040a7a800a6
:1011bc0010002000a20920008107200033742000b9
:1011cc0081497800824978008049780072052000b6
:1011dc006104200023742000814978008249780042
:1011ec00804978000100270000002100123a80009d
:1011fc0001016100800f5100fcff3a0042a7ab00d7
:10120c00feff320081e0a800d0010700b901070001
:10121c000d02070011020700c062a800c242a9001b
:10122c0000000000cb02a900000000001e28ef0007
:10123c008004eb0009047800fdbf20000c8820001e
:10124c004b0620000afa200050428000e00f5000ac
:10125c0002003200cb22a800ffff37009002800072
:10126c0090bf9f00ff3ffc00100020005042880000
:10127c00a0842000090607004a28ec00a084200066
:10128c00b10007009fb89700910288000060fe0033
:10129c00af000700e00f500002003200cb22a80084
:1012ac00ffff3700010820000042800058020700b1
:1012bc00e00f500002003200cb22a800ffff3700e5
:1012cc00004280000008b000004288008d0f5000e2
:1012dc00010036000c4288004442800002082000c5
:1012ec000300200010428000214280000c02070005
:1012fc004042880012428000234280000208b00065
:10130c000380b0001242880023428800f1bf220003
:10131c00810f5100e08f59001400360031428000db
:10132c00e18f400004003200810f500003003200b6
:10133c00cb22a800ffff3700304288001116800036
:10134c00c208de008180ea00e1806000c208dd0096
:10135c00101680000020a1000100700010168800fb
:10136c004228ef004428ef0048a8ef00c262ab000f
:10137c0008003a008904e8008b8f54000700340001
:10138c0059062000e00f540004003a001800200019
:10139c00020037008004eb0009047800f040800064
:1013ac00cf80de00e30f5000e08f580024003e0099
:1013bc0000600100030037000b00370011003700fc
:1013cc0016003700e10f54009fff3a0049ff070059
:1013dc00f84088000028a800c242a900cb02a9004e
:1013ec00cb22a9000b0037000028ab000200320012
:1013fc0025ff07000300370020002000f040880084
:10140c000a418800e10f54008fff3a002dff0700be
:10141c001e28ef00280020008bff370000408000c2
:10142c00610060000400320026ff070031ff070056
:10143c000028a80010002000f040880082ff370030
:08144c001e28ef0080ff3700ad
:020000040000fa
:101454000008eb003010780021009800320098005a
:1014640043009800540098006500980016089800fe
:1014740000000600700290008008900001025200f3
:101484002003900006a3b90030014300a0814b0063
:101494000203be00c139dd004f33de000683710054
:1014a400cfbbde008600780050019000820f53000d
:1014b40003003c0060019000820f530002003d00d5
:1014c40012089800010037001608980030019000b7
:1014d40002a2b900100990008280500040019000df
:1014e4000289b90030034200a0834a000218530065
:0814f40003905b0000000600fc
:020000040000fa
:1014fc000000eb00c18420008008780000802000f0
:10150c00014020000001eb00030028004e04040001
:10151c0000000000c184200080087800a0e52000b5
:10152c00010020003202020000000000bc08020092
:0c153c00000000000040da000000fe008b
:020000040000fa
:0c155000000006001008e9000000060082
:020000040000fa
:10155c00a0aa2a00a1aa2a000100e100e3003a0097
:10156c0050552500515525000100e100df003a00df
:10157c0082007800a2aa2a00a0aa2a000010e1008a
:10158c00da003a00010178008200780052552500fb
:10159c00505525000010e100d4003a0001017800fc
:1015ac0083007800a3aa2a00a0aa2a000018e10050
:1015bc00ce003a0081017800830078005355250055
:1015cc00505525000018e100c8003a008101780050
:1015dc0084007800a4aa2a00a0aa2a000020e10016
:1015ec00c2003a00010278008400780054552500ae
:1015fc00505525000020e100bc003a0001027800a3
:10160c0085007800a5aa2a00a0aa2a000028e100db
:10161c00b6003a0081027800850078005555250007
:10162c00505525000028e100b0003a0081027800f6
:10163c0086007800a6aa2a00a0aa2a000030e100a1
:10164c00aa003a0001037800860078005655250060
:10165c00505525000030e100a4003a000103780049
:10166c0087007800a7aa2a00a0aa2a000038e10067
:10167c009e003a00810378008700780057552500ba
:10168c00505525000038e10098003a00810378009d
:10169c0097028000ff3ffc000f01780003018000df
:1016ac008007eb0001018000a0aa2a00000188003d
:1016bc00000000002000e3008c003a0001018800cb
:1016cc000101800040552500000188000000000049
:1016dc002000e30085003a0001018800e0ff2f00a4
:1016ec00000188008f007800afaa2a00a0aa2a0067
:1016fc000078e1007d003a00810778008f007800c7
:10170c004f552500405525000078e10077003a0040
:10171c00810778008207780003018800970288000f
:10172c000000880088007800a8aa2a00a0aa2a0035
:10173c000040e1006d003a00010478008800780058
:10174c0058552500505525000040e10067003a002f
:10175c000104780089007800a9aa2a00a0aa2a000e
:10176c000048e10061003a008104780089007800ab
:10177c0059552500505525000048e1005b003a0002
:10178c00810478008a007800aaaa2a00a0aa2a005c
:10179c000050e10055003a00010578008a007800fd
:1017ac005a552500505525000050e1004f003a00d5
:1017bc00010578008b007800abaa2a00a0aa2a00a9
:1017cc000058e10049003a00810578008b00780050
:1017dc005b552500505525000058e10043003a00a8
:1017ec00810578008c007800acaa2a00a0aa2a00f7
:1017fc000060e1003d003a00010678008c007800a2
:10180c005c552500505525000060e10037003a007a
:10181c00010678008d007800adaa2a00a0aa2a0043
:10182c000068e10031003a00810678008d007800f4
:10183c005d552500505525000068e1002b003a004d
:10184c00810678008e007800aeaa2a00a0aa2a0091
:10185c000070e10025003a00010778008e00780046
:10186c005e552500505525000070e1001f003a0020
:10187c000107780091018000a00a200090018800e7
:10188c00000000003240e30018003a00910188008b
:10189c00910180005005200090018800000000009c
:1018ac003240e30011003a0091018800b101800040
:1018bc00a0aa2200b0018800000000003600e3005e
:1018cc000a003a00b1018800b10180005055210096
:1018dc00b0018800000000003600e30003003a006d
:1018ec00b10188000000eb0000000600f0ff2f00a3
:1018fc00000006000000eb0060198800c106200003
:10190c000119880011002000311988004019880045
:10191c008019880030002000201988000030200039
:10192c00101988002003a90051058000f0f82f0041
:10193c00008060000005b3005005880085a0a90058
:10194c0095a0a80021e3a80000000600f0162000d6
:10195c00200e8800c1a1a800f0f02f00c021b60015
:10196c0030ff2f00c021b600010e8000c0ff2f00f9
:10197c00008060000010a000000e88008001eb00c9
:10198c00a30e8800e21d200010322400d1bc2a00d6
:10199c0074772000851c200001097800000978006c
:1019ac00840a7800c7e1a900040028000002fd00a9
:1019bc00c621b6000002fd00530e8800040680000c
:1019cc00f3f82f00830162000360a0000306880077
:1019dc008b20a9009b20a80073082000041d200068
:1019ec000109780000097800030a7800e7815100aa
:1019fc00251d20000109780000097800830a780071
:101a0c008be0a9009be0a8000029b100a03288005f
:101a1c0055a6a9000028200090328800f000200074
:101a2c005226b70031368000f00f2e000080600087
:101a3c000080a00030368800c8e2a90055e6a80056
:101a4c00c1e1a800000006000621ef000ca1ef0088
:101a5c000002200080088800000006000021ef0032
:101a6c00a0002000100888007600400020088800a4
:101a7c0021058000f0ff2800008060000100250097
:101a8c0001007000200588008460a9009460a80003
:101a9c0005e1a900000006000041eb0054002800fd
:101aac00cf09de00e00f500001003d000304a2004e
:101abc0081804000e0cf510001003200848068003a
:101acc000241e800ef4f510002003e0000004000d0
:101adc00f3ff370001007800000006000041eb0026
:101aec0054002800cf09de00e04f500001003d00fb
:101afc000304a20081804000e0cf510001003200bd
:101b0c00848068000241e800e74f510002003e006b
:101b1c0000404000f3ff3700010078000000060091
:101b2c000400fa00889fbe008a1f78008301d10050
:101b3c000281d3000004be001100370009007800b8
:101b4c0032e0b7001880ba0084007800b2bf9f0062
:101b5c00c3bf9f00e1ff0700800078001800ba00a7
:101b6c00cdff07000002780062044400e0844c00c2
:101b7c003fb99700cfb9970061015100e08159003e
:101b8c00e00f5100e08f5900ecff3a0004007800a0
:101b9c004f0578004f04be000080fa0000000600dc
:101bac000400fa00889fbe008301d1000281d3009b
:101bbc000004be00040078000f0037008004fd0014
:101bcc0032e0b7008004fd001802ba0080007800f3
:101bdc0004007800c2bf9f00d3bf9f00aeff070078
:101bec0062044400e0844c004fb99700dfb99700c1
:101bfc0061015100e0815900e00f5100e08f590064
:101c0c00eeff3a004f04be000080fa000000060010
:020000040000fa
:101c1c00c208de000100e00002003a000000eb0008
:101c2c000000060052552500a3aa2a009602800047
:101c3c004000fc001002780090029000020878002e
:101c4c0013009800900378000710e10014003a008c
:101c5c00900390000718e10011003a000308780087
:101c6c0012009800900378000718e1000c003a006d
:101c7c00900390000710e10009003a000408780076
:101c8c00150098009602880000008800640040004f
:101c9c008100e900e6ff3a000000eb0000000600be
:081cac001000200000000600fa
:020000040000fa
:101cb4004a08000002000000000000003a0800008a
:101cc40010000000020000000000c80000640000d2
:101cd4008008000000000000ffffff00ff0000007c
:101ce400000800003a0000000000000000000000ae
:020000040000fa
:0c2aa400000006001008e9000000060019
:020000040000fa
:0457f8004f790000e5
:020000040000fa
:0457fc007f3d0000ed
:00000001FF
