:020000040000fa
:080000000002040000000000f2
:020000040000fa
:100008001011000024110000381100004c110000ec
:100018006011000010110000101100001011000004
:100028001011000010110000101100001011000044
:100038001011000010110000101100001011000034
:100048001011000010110000101100001011000024
:100058001011000010110000101100001011000014
:100068001011000010110000101100001011000004
:1000780010110000101100001011000010110000f4
:1000880010110000101100001011000010110000e4
:1000980010110000101100001011000010110000d4
:1000a80010110000101100001011000010110000c4
:1000b80010110000101100001011000010110000b4
:1000c80010110000101100001011000010110000a4
:1000d8001011000010110000101100001011000094
:1000e8001011000010110000101100001011000084
:1000f8001011000010110000101100001011000074
:100108001011000010110000101100001011000063
:100118001011000010110000101100001011000053
:100128001011000010110000101100001011000043
:100138001011000010110000101100001011000033
:100148001011000010110000101100001011000023
:100158001011000010110000101100001011000013
:100168001011000010110000101100001011000003
:1001780010110000101100001011000010110000f3
:1001880010110000101100001011000010110000e3
:1001980010110000101100001011000010110000d3
:1001a80010110000101100001011000010110000c3
:1001b80010110000101100001011000010110000b3
:1001c80010110000101100001011000010110000a3
:1001d8001011000010110000101100001011000093
:1001e8001011000010110000101100001011000083
:0801f8001011000010110000bd
:020000040000fa
:100208001011000024110000381100004c110000ea
:100218006011000010110000101100001011000002
:100228001011000010110000101100001011000042
:100238001011000010110000101100001011000032
:100248001011000010110000101100001011000022
:100258001011000010110000101100001011000012
:100268001011000010110000101100001011000002
:1002780010110000101100001011000010110000f2
:1002880010110000101100001011000010110000e2
:1002980010110000101100001011000010110000d2
:1002a80010110000101100001011000010110000c2
:1002b80010110000101100001011000010110000b2
:1002c80010110000101100001011000010110000a2
:1002d8001011000010110000101100001011000092
:1002e8001011000010110000101100001011000082
:1002f8001011000010110000101100001011000072
:100308001011000010110000101100001011000061
:100318001011000010110000101100001011000051
:100328001011000010110000101100001011000041
:100338001011000010110000101100001011000031
:100348001011000010110000101100001011000021
:100358001011000010110000101100001011000011
:100368001011000010110000101100001011000001
:1003780010110000101100001011000010110000f1
:1003880010110000101100001011000010110000e1
:1003980010110000101100001011000010110000d1
:1003a80010110000101100001011000010110000c1
:1003b80010110000101100001011000010110000b1
:1003c80010110000101100001011000010110000a1
:1003d8001011000010110000101100001011000091
:1003e8001011000010110000101100001011000081
:0803f8001011000010110000bb
:020000040000fa
:10040000cf8020000eff27000e01880000000000b2
:100410000c000700803121000100200011000700be
:10042000100020000000e000020032003013020043
:1004300000000000ee0e0200000000000040da00a4
:100440000000fe004440a900000020000000e00081
:100450000300320000002000a00188004440a800f2
:100460000000060091018800800078000000eb0089
:1004700015003700e280400032a0b4009101ba00bc
:10048000e280400032a0b4009102ba00e280400055
:1004900032a0b4000002eb00472bde00f507b200eb
:1004a000602ce10004003a000059eb008301e900f0
:1004b000fdff3e00040037006128e100010032002a
:1004c0000082eb00040007001101ba000200e00006
:1004d000e8ff3a00000006003159ba008301e90044
:1004e0000c0032002159ba008301e90008003200f3
:1004f0000400e00003003a00e280400032a0b400b3
:10050000f5ff370011d9ba008301e900faff3a007c
:100510008100e800e180400032a0b4000000060045
:100520006022b800060220000000d0008180d200c6
:100530000482d2008582d2000000a0000202520094
:1005400083825a00030031000202420083824a0083
:100550000000a1000603e900f3ff3a0000000600d6
:100560000800fa00889fbe008a9fbe0084bf9f00db
:1005700095bf9f00a6bf9f00b7bf9f003004be007d
:100580002005be000fba97009fba97002fbb9700b7
:10059000bfbb97000404440085844c0006054d0051
:1005a00087854d000898be000a90be000440e10017
:1005b00005c8e10006d0e10007d8e10002003100e3
:1005c000680040001008e8004f05be004f04be0060
:1005d0000080fa0000000600fe874700889fbe00ea
:1005e0008a9fbe008c9fbe008e1f7800d0b79f00f0
:1005f000e1b79f00f2b79f0083bf9f0084b79f00c1
:1006000095b79f00a6b79f00b7b79f008000eb008b
:10061000f1af9f00e1af9f00d1af9f00c1af9f003e
:10062000b1af9f00010678000d042000ccb79f00f9
:100630000605be000404be007fae97006faf9700b2
:100640005fa89700e00f56000f003d00cf71de005d
:100650000c01460002817100f2af9f005d000700af
:100660004f20de00818040008100700064000700a0
:100670000802be000a03be0060fd2f000f0040000c
:10068000b7ff07001d003700520007004f21de00b2
:100690008180400081007100590007003faa970047
:1006a000cfaa97005fab9700efab9700080052000e
:1006b00089805a000a015b008b815b00b0af9f000c
:1006c000c1af9f00d2af9f00e3af9f004f70de002d
:1006d0000c01460002007000130020000820e10019
:1006e00009a8e1000ab0e1000bb8e10001003900ff
:1006f0008001eb0003005000f0af9f007fae970039
:10070000e00f56000f00350010002000010020000f
:100710006011b8005fb29700efb297007fb3970007
:100720008fbb970004027000858270000603710081
:1007300087837100d4b79f00e5b79f00f6b79f008d
:1007400087bf9f00cfb297008502e800c5b79f0022
:100750008d8f5200b8ff3a000c017800e00f510075
:1007600007003d000fb297009fb297002fb397008c
:10077000bfb3970060fd2f000f00400078ff070017
:10078000ffa09700e08f500008003a003fac9700b0
:10079000cfac97005fad9700efad9700d8b79f0043
:1007a000e9b79f00fab79f008bbf9f005fb097002b
:1007b000efb097007fb197008fb997004f0778008f
:1007c0004f06be004f05be004f04be00ef01b10052
:1007d000000006004f01de008e004700810071001e
:1007e000c1af9f00afa897004f09de000000400096
:1007f00000007100b0af9f001faa97000000060024
:10080000a1af9f000e0007004f18de000402420057
:100810000002720094af9f00090007000000400032
:10082000818048000201490083814900b0b79f00e0
:10083000c1b79f00d2b79f00e3b79f00000006003a
:100840001fb09700afb097003fb19700cfb19700ae
:1008500000000600881f780018002000881f78001c
:100860005dff07008f87e9004f0478000000060055
:10087000801feb0058ff07008f87e900000006008b
:10088000889fbe008a9fbe008c1f78006044b8001d
:100890006055b8000800e1000988e1000a90e10015
:1008a0000b98e1000d003d000000540081805c00c9
:1008b00002015d0083815d001c0020000820e10032
:1008c00009a8e1000ab0e1000bb8e1000b003d000f
:1008d000210007000006eb00080037000006eb00cf
:1008e000e00f5200e08f5a00e00f5b00e08f5b00ea
:1008f00002003d00180007001c002000d5ff070083
:1009000080057800010578008204780003047800ef
:100910000b0278008a0278000903780088037800c7
:10092000e00f5600060032006000b8006011b80009
:10093000040250008582580006035900878359003d
:100940000400be000601be004f0678004f05be0041
:100950004f04be00000006000402540085825c00c3
:1009600006035d0087835d0000000600889fbe00cf
:100970008a9fbe008c1f78006044b8006055b800a4
:100980000800e1000988e1000a90e1000b98e1000d
:100990000b003d000000540081805c0002015d00fe
:1009a00083815d001c0020000820e10009a8e1000f
:1009b0000ab0e1000bb8e1000b003d000600370073
:1009c0000006eb00e00f5200e08f5a00e00f5b00e2
:1009d000e08f5b0004003d000402540085825c004f
:1009e00006035d0087835d00a1ff07008005780096
:1009f0000105780082047800030478000b02780077
:100a00008a0278000903780088037800e00f560016
:100a1000060032006000b8006011b8000402500007
:100a20008582580006035900878359000400be00e0
:100a30000601be004f0678004f05be004f04be0001
:100a400000000600889fbe008a9fbe008c1f7800b1
:100a50000006eb00e00f5000e08f5800e00f590057
:100a6000e08f590007003d006044b8006055b800b1
:100a70000000540081805c0002015d0083815d0004
:100a80001c002000e00f5200e08f5a00e00f5b00d6
:100a9000e08f5b0007003d006044b8006055b8007f
:100aa0000402540085825c0006035d0087835d00bc
:100ab0000c00a200100007000203be000002be00ee
:100ac000e00f5600060032006000b8006011b80068
:100ad000040250008582580006035900878359009c
:100ae0000400be000601be004f0678004f05be00a0
:100af0004f04be0000000600889fbe008a9fbe0013
:100b00008c9fbe000404b8000506b80089044600a6
:100b100060854e000606b8000a054600e0854e00d6
:100b20000706b8008b054600040eb800890446008d
:100b30000a854e00e0854d00050eb8000a05460006
:100b40008b854e00060eb8008b0546000416b800d3
:100b50000a0546008b854e000516b8008b05460039
:100b6000041eb8008b0546000800be000a01be0046
:100b70004f06be004f05be004f04be000000060039
:020000040000fa
:100b8000c108de000100e00002003a000000eb00b6
:100b9000000006000002780081027800020378005d
:100ba00083037800930280000400780085007800b9
:100bb000060178000200e00004003200ff3ffc0064
:100bc000301978008100e900fcff3a000400780049
:100bd00085007800ff3ffc000008eb000080e80083
:100be0008100e900fbff3a000400780085007800ee
:100bf0003a06040000000000040078008500780038
:100c000066070400000000000400780085007800fa
:100c1000f20704000000000004007800850078005e
:100c2000a208040000000000040078000002eb00ad
:100c300001003700140020008500780006017800cc
:100c40000200e00004003200ff3ffc003218780090
:100c50008100e900fcff3a0004007800930288005c
:100c60000000880007f0a70038130400000000000f
:100c700000000600ff3ffc001000a700edff37005a
:100c80001000a0001000a600eaff37001000a1002d
:100c90001000a700e7ff37001000a0001010a70009
:100ca000e4ff37001010a0001010a600e1ff37008d
:100cb0001010a1001010a700deff37001010a000d8
:100cc0001020a700dbff37001020a0001020a60096
:100cd000d8ff37001020a1001020a700d5ff370053
:100ce0001020a0001030a700d2ff37001030a00065
:100cf0001030a600cfff37001030a1001030a70041
:100d0000ccff37001030a0001040a700c9ff37000b
:100d10001040a0001040a600c6ff37001040a10000
:100d20001040a700c3ff37001040a0001050a700dc
:100d3000c0ff37001050a0001050a600bdff3700c4
:100d40001050a1001050a700baff37001050a000ab
:100d50001060a700b7ff37001060a0001060a60069
:100d6000b4ff37001060a1001060a700b1ff37008a
:100d70001060a0001070a700aeff37001070a00038
:100d80001070a600abff37001070a1001070a70014
:100d9000a8ff37001070a0001080a700a5ff370043
:100da0001080a0001080a600a2ff37001080a100d4
:100db0001080a7009fff37001080a0001090a700b0
:100dc0009cff37001090a0001090a60099ff3700fc
:100dd0001090a1001090a70096ff37001090a0007f
:100de00010a0a70093ff370010a0a00010a0a6003d
:100df00090ff370010a0a10010a0a7008dff3700c2
:100e000010a0a00010b0a7008aff370010b0a0000b
:100e100010b0a60087ff370010b0a10010b0a700e7
:100e200084ff370010b0a00010c0a70081ff37007a
:100e300010c0a00010c0a6007eff370010c0a100a7
:100e400010c0a7007bff370010c0a00010d0a70083
:100e500078ff370010d0a00010d0a60075ff370033
:100e600010d0a10010d0a70072ff370010d0a00052
:100e700010e0a7006fff370010e0a00010e0a60010
:100e80006cff370010e0a10010e0a70069ff3700f9
:100e900010e0a00010f0a70066ff370010f0a000df
:100ea00010f0a60063ff370010f0a10010f0a700bb
:100eb00060ff370010f0a0000080e8008100e9002a
:100ec0006cff3a00fc05040000000000ff3ffc003e
:100ed0001000a60057ff37001000a1001000a0006e
:100ee0001010a60053ff37001010a1001010a00032
:100ef0001020a6004fff37001020a1001020a000f6
:100f00001030a6004bff37001030a1001030a000b9
:100f10001040a60047ff37001040a1001040a0007d
:100f20001050a60043ff37001050a1001050a00041
:100f30001060a6003fff37001060a1001060a00005
:100f40001070a6003bff37001070a1001070a000c9
:100f50001080a60037ff37001080a1001080a0008d
:100f60001090a60033ff37001090a1001090a00051
:100f700010a0a6002fff370010a0a10010a0a00015
:100f800010b0a6002bff370010b0a10010b0a000d9
:100f900010c0a60027ff370010c0a10010c0a0009d
:100fa00010d0a60023ff370010d0a10010d0a00061
:100fb00010e0a6001fff370010e0a10010e0a00025
:100fc00010f0a6001bff370010f0a10010f0a000e9
:100fd0000080e8008100e900bcff3a00040604003c
:100fe000000000000080400000804000ff3ffc0047
:100ff0000080e90010f0a6000eff370010f0a100fd
:1010000010f0a00010f0a10010e0a60009ff3700ca
:1010100010e0a10010e0a00010e0a10010d0a60098
:1010200004ff370010d0a10010d0a00010d0a10004
:1010300010c0a600fffe370010c0a10010c0a00025
:1010400010c0a10010b0a600fafe370010b0a10039
:1010500010b0a00010b0a10010a0a600f5fe37004f
:1010600010a0a10010a0a00010a0a1001090a60048
:10107000f0fe37001090a1001090a0001090a10089
:101080001080a600ebfe37001080a1001080a000a9
:101090001080a1001070a600e6fe37001070a100bd
:1010a0001070a0001070a1001060a600e1fe3700d3
:1010b0001060a1001060a0001060a1001050a600f8
:1010c000dcfe37001050a1001050a0001050a1000d
:1010d0001040a600d7fe37001040a1001040a0002d
:1010e0001040a1001030a600d2fe37001030a10041
:1010f0001030a0001030a1001020a600cdfe370057
:101100001020a1001020a0001020a1001010a600a7
:10111000c8fe37001010a1001010a0001010a10090
:101120001000a600c3fe37001000a1001000a000b0
:101130001000a1008100e900acff3a000c06040099
:10114000000000000080400000804000ff3ffc00e5
:101150000080e90010f0a700b6fe370010f0a000f4
:1011600010f0a10010e0a700b2fe370010e0a000d0
:1011700010e0a10010d0a700aefe370010d0a000f4
:1011800010d0a10010c0a700aafe370010c0a00018
:1011900010c0a10010b0a700a6fe370010b0a0003c
:1011a00010b0a10010a0a700a2fe370010a0a00060
:1011b00010a0a1001090a7009efe37001090a00084
:1011c0001090a1001080a7009afe37001080a000a8
:1011d0001080a1001070a70096fe37001070a000cc
:1011e0001070a1001060a70092fe37001060a000f0
:1011f0001060a1001050a7008efe37001050a00014
:101200001050a1001040a7008afe37001040a00037
:101210001040a1001030a70086fe37001030a0005b
:101220001030a1001020a70082fe37001020a0007f
:101230001020a1001010a7007efe37001010a000a3
:101240001010a1001000a7007afe37001000a000c7
:101250001000a1008100e900bcff3a001406040060
:1012600000000000c108de000100e00002003a00ba
:101270000000eb0000000600000278008102780008
:101280000203780083037800930280000400780052
:1012900085007800060178000200e00004003200ba
:1012a000ff3ffc00301978008100e900fcff3a00a4
:1012b0000400780085007800ff3ffc000008eb0088
:1012c0000080e8008100e900fbff3a00040078009c
:1012d00085007800440a0400000000000400780043
:1012e00085007800b00a0400000000000700a60096
:1012f000090037000400780085007800ff3ffc00fb
:10130000100178000200e00017003a000080e800b9
:101310008100e900f9ff3a000400780085007800b8
:10132000d409040000000000040078008500780063
:10133000200b040000000000040078008500780005
:10134000ff3ffc00100178000200e00006003a00b8
:101350000080e8008100e900f9ff3a00040078000d
:101360000002eb0001003700140020008500780027
:10137000060178000200e00004003200ff3ffc009c
:10138000321878008100e900fcff3a000400780080
:10139000930288000000880007f0a70036130400bd
:1013a00000000000000006000080400000804000b7
:1013b000ff3ffc000080e90010f0a700eaff3700c3
:1013c00010f0a00010e0a700e7ff370010e0a00039
:1013d00010d0a700e4ff370010d0a00010c0a70075
:1013e000e1ff370010c0a00010b0a700deff3700fb
:1013f00010b0a00010a0a700dbff370010a0a000d5
:101400001090a700d8ff37001090a0001080a70010
:10141000d5ff37001080a0001070a700d2ff370062
:101420001070a0001060a700cfff37001060a00070
:101430001050a700ccff37001050a0001040a700ac
:10144000c9ff37001040a0001030a700c6ff3700ca
:101450001030a0001020a700c3ff37001020a0000c
:101460001010a700c0ff37001010a0001000a70048
:10147000bdff37001000a0008100e900ccff3a005a
:101480009409040000000000ff3ffc001000a700ca
:10149000b5ff37001000a0001010a700b2ff370002
:1014a0001010a0001020a700afff37001020a000f0
:1014b0001030a700acff37001030a0001040a7008c
:1014c000a9ff37001040a0001050a700a6ff37006a
:1014d0001050a0001060a700a3ff37001060a0000c
:1014e0001070a700a0ff37001070a0001080a700a8
:1014f0009dff37001080a0001090a7009aff3700d2
:101500001090a00010a0a70097ff370010a0a00027
:1015100010b0a70094ff370010b0a00010c0a700c3
:1015200091ff370010c0a00010d0a7008eff370039
:1015300010d0a00010e0a7008bff370010e0a00043
:1015400010f0a70088ff370010f0a0000080e8002e
:101550008100e900ccff3a006e09040000000000a1
:101560000080400000804000ff3ffc000080e90058
:1015700010f0a6007cff370010f0a10010e0a600dc
:1015800079ff370010e0a10010d0a60076ff3700e9
:1015900010d0a10010c0a60073ff370010c0a1003a
:1015a00010b0a60070ff370010b0a10010a0a60078
:1015b0006dff370010a0a1001090a6006aff370051
:1015c0001090a1001080a60067ff37001080a100d6
:1015d0001070a60064ff37001070a1001060a60014
:1015e00061ff37001060a1001050a6005eff3700b9
:1015f0001050a1001040a6005bff37001040a10072
:101600001030a60058ff37001030a1001020a600af
:1016100055ff37001020a1001010a60052ff370020
:101620001010a1001000a6004fff37001000a1000d
:101630008100e900ccff3a007609040000000000b8
:10164000ff3ffc001000a60047ff37001000a1007c
:101650001010a60044ff37001010a1001020a600b3
:1016600041ff37001020a1001030a6003eff3700d8
:101670001030a1001040a6003bff37001040a10031
:101680001050a60038ff37001050a1001060a600cf
:1016900035ff37001060a1001070a60032ff370040
:1016a0001070a1001080a6002fff37001080a1004d
:1016b0001090a6002cff37001090a10010a0a600eb
:1016c00029ff370010a0a10010b0a60026ff3700a8
:1016d00010b0a10010c0a60023ff370010c0a10069
:1016e00010d0a60020ff370010d0a10010e0a60007
:1016f0001dff370010e0a10010f0a6001aff370010
:1017000010f0a1000080e8008100e900ccff3a0061
:101710009c09040000000000a0aa2a00a1aa2a0037
:101720000100e100e3003a00505525005155250025
:101730000100e100df003a0082007800a2aa2a003e
:10174000a0aa2a000010e100da003a0001017800a6
:101750008200780052552500505525000010e10008
:10176000d4003a000101780083007800a3aa2a007f
:10177000a0aa2a000018e100ce003a0081017800fa
:101780008300780053552500505525000018e100ce
:10179000c8003a008101780084007800a4aa2a00d9
:1017a000a0aa2a000020e100c2003a00010278004d
:1017b0008400780054552500505525000020e10094
:1017c000bc003a000102780085007800a5aa2a0032
:1017d000a0aa2a000028e100b6003a0081027800a1
:1017e0008500780055552500505525000028e1005a
:1017f000b0003a008102780086007800a6aa2a008c
:10180000a0aa2a000030e100aa003a0001037800f3
:101810008600780056552500505525000030e1001f
:10182000a4003a000103780087007800a7aa2a00e4
:10183000a0aa2a000038e1009e003a008103780047
:101840008700780057552500505525000038e100e5
:1018500098003a008103780097028000ff3ffc0067
:101860000f017800030180008007eb000101800078
:10187000a0aa2a0000018800000000002000e30068
:101880008c003a00010188000101800040552500cc
:1018900000018800000000002000e30085003a00fd
:1018a00001018800e0ff2f00000188008f00780010
:1018b000afaa2a00a0aa2a000078e1007d003a0021
:1018c000810778008f0078004f552500405525008e
:1018d0000078e10077003a008107780082077800fd
:1018e00003018800970288000000880088007800c3
:1018f000a8aa2a00a0aa2a000040e1006d003a0030
:1019000001047800880078005855250050552500be
:101910000040e10067003a00010478008900780087
:10192000a9aa2a00a0aa2a000048e10061003a0002
:10193000810478008900780059552500505525000c
:101940000048e1005b003a00810478008a007800da
:10195000aaaa2a00a0aa2a000050e10055003a00d5
:10196000010578008a0078005a5525005055250059
:101970000050e1004f003a00010578008b0078002c
:10198000abaa2a00a0aa2a000058e10049003a00a8
:10199000810578008b0078005b55250050552500a7
:1019a0000058e10043003a00810578008c0078007f
:1019b000acaa2a00a0aa2a000060e1003d003a007b
:1019c000010678008c0078005c55250050552500f4
:1019d0000060e10037003a00010678008d007800d1
:1019e000adaa2a00a0aa2a000068e10031003a004e
:1019f000810678008d0078005d5525005055250042
:101a00000068e1002b003a00810678008e00780023
:101a1000aeaa2a00a0aa2a000070e10025003a0020
:101a2000010778008e0078005e552500505525008e
:101a30000070e1001f003a0001077800910180006a
:101a4000a00a200090018800000000003240e3005e
:101a500018003a0091018800910180005005200093
:101a600090018800000000003240e30011003a00bd
:101a700091018800b1018000a0aa2200b001880075
:101a8000000000003600e3000a003a00b1018800bf
:101a9000b101800050552100b00188000000000015
:101aa0003600e30003003a00b10188000000eb00bb
:101ab00000000600f0ff2f00000006000800fa00fa
:101ac00020079800310798003e009000100798000a
:101ad0000040eb00004f78001e0037000040eb0094
:101ae000104798009e0090000000eb00808f50008f
:101af00002003d0010c0b30010479800ae009000f7
:101b00000000eb00808f500003003d001e4090005d
:101b10000004a200104798002e0090000000400032
:101b2000200798001e009000000040001007980059
:101b30009e4090000040eb0080cf50000400320037
:101b40009e00900050002800008068001007980058
:101b50001e4fe8009e407800f0c0b30080cf5000d8
:101b6000deff36001e0090000080fa000000060034
:101b70000800fa0040479800310798003e009000a6
:101b8000100798000040eb00004f78001e0037005f
:101b90000040eb00104798009e0090000000eb0012
:101ba000808f500002003d0010c0b3001047980025
:101bb000ce4090000040eb0080cf500003003d007d
:101bc0001e4090000004a200104798004e40900074
:101bd00000404000404798001e0090000000400078
:101be000100798009e4090000040eb0080cf50000e
:101bf000040032009e009000500028000080680021
:101c0000100798001e4fe8009e40780070c0b30097
:101c100080cf5000deff36001e0090000080fa00ea
:101c2000000006001200fa00e8024700808abe00a9
:101c30006207980073079800040f98006e009000e8
:101c4000fe0090008100d1000080d3006007980062
:101c500071079800680047001000be00640147004b
:101c60000089be008e089000010f78001f00370029
:101c70006e40900032e0b7002e0090001080ba0055
:101c8000100798001e009000004078009e00780029
:101c9000b7ff0700000f78002e0090001000ba0078
:101ca000100798009e0078001e00900083ff070038
:101cb000000f7800640147001200be00620040007f
:101cc000e0804800e4024700808abe006e01900078
:101cd000fe0190000080eb008080eb0002004000dd
:101ce0008380480060079800710798006e0190009b
:101cf000fe0190006000b800800f5100818f5900f4
:101d0000dbff3a001e0078000080fa0000000600a9
:101d10001200fa00e8024700808abe0062079800bd
:101d200073079800040f98006e009000fe0090006a
:101d30008100d1000080d3006007980071079800ef
:101d4000680047001000be00640147000089be0023
:101d50008e089000010f7800170037006e40900049
:101d600032e0b7002e0090001000ba001007980073
:101d70009e0078001e00900050ff0700000f7800c2
:101d8000640147001200be0062004000e08048008d
:101d9000e4024700808abe006e019000fe019000c0
:101da0000080eb008080eb00020040008380480050
:101db00060079800710798006e019000fe01900086
:101dc0006000b800800f5100818f5900e3ff3a0096
:101dd0001e0078000080fa00000006000000fa00f3
:101de000003a8000f00060000000eb00808f50009f
:101df00001003200ffff3700501002000000000019
:101e00000060fe00590007008000eb00810f5000c9
:101e100001003200ffff370001000700f8ff370024
:101e20000000fa00c402a8004001200032100200a5
:101e300000000000c402a900c422a8004001200044
:101e40003210020000000000c422a900c442a80011
:101e5000400120003210020000000000c442a9002e
:101e6000c462a800400120003210020000000000ff
:101e7000c462a900c482a800400120003210020000
:101e800000000000c482a900c4a2a80040012000f4
:101e90003210020000000000c4a2a900c4c2a800c1
:101ea000400120003210020000000000c4c2a9005e
:101eb000c4e2a8004001200032100200000000002f
:101ec000c4e2a900c4e2a8004001200032100200d0
:101ed00000000000c4e2a900c4c2a8004001200024
:101ee0003210020000000000c4c2a900c4a2a80071
:101ef000400120003210020000000000c4a2a9002e
:101f0000c482a8004001200032100200000000003e
:101f1000c482a900c462a80040012000321002005f
:101f200000000000c462a900c442a80040012000d3
:101f30003210020000000000c442a900c422a80020
:101f4000400120003210020000000000c422a9005d
:101f5000c402a8004001200032100200000000006e
:101f6000c402a9000080fa00000006000400fa0084
:101f70000020200001002000008fbe0000408000f3
:101f80001140800002c02a002300200000015100ff
:101f9000818159001e00be00800f5100818f5900c1
:101fa00006003100004080001140800002c02a007d
:101fb00023002000001f510001975900224080009b
:101fc0000040800011408000020278001e01be0027
:101fd000120e020000000000204088000040800037
:101fe000114080003e014000ae8148000200be006a
:101ff00000408800114088000240800013408000ab
:1020000000c02a0021002000800f5100818f59005c
:1020100011003a00314080000080eb00808f5000ba
:10202000060032002140800030408000808f500048
:10203000040032001000200008003700204080001b
:10204000304088006000b8000040880011408800df
:102050000080eb00204088000000eb000080fa00c8
:10206000000006000200fa00000f780002003700ae
:10207000803e0900000000001e00ea001e00700003
:102080004f00de00804078001e0fe9000040eb00aa
:1020900080cf5000f6ff3a000080fa0000000600f2
:1020a0000000fa000080eb00601988000080eb005f
:1020b00050198800e0012000303a88000000eb0051
:1020c000200888000421a80005e1a80042c7bf003d
:1020d0000014a0000081fb006004200071052000b6
:1020e0002374200080497800814978008249780073
:1020f00040a7a8000060fe002116800000f02f001d
:1021000000806000201688000116800000f02f007b
:102110000080600000168800c402a8004001200072
:10212000d0ff0700c402a900c422a800400120007b
:10213000ccff0700c422a900c442a800400120002f
:10214000c8ff0700c442a900c462a80040012000e3
:10215000c4ff0700c462a900c482a8004001200097
:10216000c0ff0700c482a900c4a2a800400120004b
:10217000bcff0700c4a2a900c4c2a80040012000ff
:10218000b8ff0700c4c2a900c4e2a80040012000b3
:10219000b4ff0700c4e2a900c4e2a8004001200087
:1021a000b0ff0700c4e2a900c4c2a800400120009b
:1021b000acff0700c4c2a900c4a2a80040012000cf
:1021c000a8ff0700c4a2a900c482a8004001200003
:1021d000a4ff0700c482a900c462a8004001200037
:1021e000a0ff0700c462a900c442a800400120006b
:1021f0009cff0700c442a900c422a800400120009f
:1022000098ff0700c422a900c402a80040012000d2
:1022100094ff0700c402a9000080fa000000060035
:102220003400f800881f780008002000a80188000a
:102230004f0478000000fa000000000000000000d9
:1022400000000000fcff37003400f800881f780011
:1022500008002000a80188004f0478000000fa0060
:10226000000000000000000000000000fcff37003c
:102270003400f800881f780008002000a8018800ba
:102280004f0478000000fa00000000000000000089
:1022900000000000fcff37003400f800881f7800c1
:1022a00008002000a80188004f0478000000fa0010
:1022b000000000000000000000000000fcff3700ec
:1022c0003400f800881f780008002000a80188006a
:1022d0004f0478000000fa00000000000000000039
:1022e00000000000fcff37002800fa00889fbe00b5
:1022f0008a9fbe0070079800010f9800120f980087
:10230000230f9800340f98002e0890007400b90035
:10231000000178001e0890006000b90000007800fd
:10232000000141009e089000400120000008b80014
:102330000101410082007800823e2000030020005d
:102340009002020000000000000f78009e0078005c
:102350000000eb00808f500002003a0010002000c7
:10236000000f78007e0090008e089000400f9800cb
:10237000510f98008000eb00610f98000002eb0005
:10238000740f98001e007800010020000200200059
:10239000030020000203be000002be004e089000b1
:1023a000de0890006e099000fe09900022050200f0
:1023b000000000000203be000002be0004179800e7
:1023c0001517980026179800371798002e089000c8
:1023d0007400b900000178001e0890006000b90088
:1023e00000007800000141009e089000400120009c
:1023f0000008b80001014100820078000004be001e
:102400000005eb008005eb000802be000a03be00d9
:102410000e1090009e1090002e119000be119000a2
:102420002a040200000000000000be0030079800ef
:10243000410798003e0890006101b8003e009000fe
:10244000ce009000009ab90004027800028bb90017
:1024500086027800050242000010b8000102420026
:1024600084007800823e20000300200090020200d9
:10247000000000005007980061079800011020003c
:102480001e007800e612020000000000010020009b
:1024900010079800210798001e019000ae019000df
:1024a0006000b800800f5100818f590002003a008f
:1024b000200020001b0037003e019000ce0190005c
:1024c0005e009000ee0090000001510081815900f3
:1024d0001e009000ae009000800f5100818f5900c7
:1024e00002003600100020000e0037003e01900070
:1024f000ce0190005e009000ee00900002014000ce
:10250000838148001e009000ae009000800f5100b3
:10251000818f5900020031001000200001003700b7
:102520000000eb004f05be004f04be000080fa0023
:1025300000000600c208de000100e00002003a00d0
:102540000000eb000000060052552500a3aa2a0057
:10255000960280004000fc0010027800900290007b
:102560000208780013009800900378000710e1003b
:1025700014003a00900390000718e10011003a009f
:102580000308780012009800900378000718e10013
:102590000c003a00900390000710e10009003a0097
:1025a0000408780015009800960288000000880052
:1025b000640040008100e900e6ff3a000000eb0003
:1025c0000000060010002000000006000001780056
:1025d00081017800940280000000eb008009eb008c
:1025e000ff3ffc000000e8000e003200930078007e
:1025f0000100e000faff32000000eb008009eb0070
:10260000ff3ffc000000e800060032000000000070
:102610000000000000000000930078000208e100c4
:10262000f7ff3a00940288000000880000000600ce
:020000040000fa
:102630000808000002000000000000000008000080
:102640000400000000000000040800000400000076
:1026500002000000ffffff00ff000000000000007c
:020000040000fa
:102660000000eb00a1802000800878000000eb0053
:10267000a180200080087800ee0e0200000000001b
:082680000040da000000fe003a
:020000040000fa
:0caaa400000006001008e9000000060099
:020000040000fa
:020000040001f9
:0c555000000006001008e9000000060042
:020000040000fa
:0200000401f009
:04000000ffff0000fe
:020000040000fa
:0200000401f009
:04000400ffff0000fa
:020000040000fa
:0200000401f009
:04000800ffff0000f6
:020000040000fa
:0200000401f009
:04000c00fbff0000f6
:020000040000fa
:0200000401f009
:04001000fdff0000f0
:020000040000fa
:0200000401f009
:0400140077ff000072
:020000040000fa
:0200000401f009
:04001c00dfff000002
:00000001FF
