:020000040000fa
:080000000002040000000000f2
:020000040000fa
:100008006c0f00007e0f0000900f0000a20f000090
:10001800b40f00006c0f00006c0f00006c0f0000a4
:100028006c0f00006c0f00006c0f00006c0f0000dc
:100038006c0f00006c0f00006c0f00006c0f0000cc
:100048006c0f00006c0f00006c0f00006c0f0000bc
:100058006c0f00006c0f00006c0f00006c0f0000ac
:100068006c0f00006c0f00006c0f00006c0f00009c
:100078006c0f00006c0f00006c0f00006c0f00008c
:100088006c0f00006c0f00006c0f00006c0f00007c
:100098006c0f00006c0f00006c0f00006c0f00006c
:1000a8006c0f00006c0f00006c0f00006c0f00005c
:1000b8006c0f00006c0f00006c0f00006c0f00004c
:1000c8006c0f00006c0f00006c0f00006c0f00003c
:1000d8006c0f00006c0f00006c0f00006c0f00002c
:1000e8006c0f00006c0f00006c0f00006c0f00001c
:1000f8006c0f00006c0f00006c0f00006c0f00000c
:100108006c0f00006c0f00006c0f00006c0f0000fb
:100118006c0f00006c0f00006c0f00006c0f0000eb
:100128006c0f00006c0f00006c0f00006c0f0000db
:100138006c0f00006c0f00006c0f00006c0f0000cb
:100148006c0f00006c0f00006c0f00006c0f0000bb
:100158006c0f00006c0f00006c0f00006c0f0000ab
:100168006c0f00006c0f00006c0f00006c0f00009b
:100178006c0f00006c0f00006c0f00006c0f00008b
:100188006c0f00006c0f00006c0f00006c0f00007b
:100198006c0f00006c0f00006c0f00006c0f00006b
:1001a8006c0f00006c0f00006c0f00006c0f00005b
:1001b8006c0f00006c0f00006c0f00006c0f00004b
:1001c8006c0f00006c0f00006c0f00006c0f00003b
:1001d8006c0f00006c0f00006c0f00006c0f00002b
:1001e8006c0f00006c0f00006c0f00006c0f00001b
:0801f8006c0f00006c0f000009
:020000040000fa
:100208006c0f00007e0f0000900f0000a20f00008e
:10021800b40f00006c0f00006c0f00006c0f0000a2
:100228006c0f00006c0f00006c0f00006c0f0000da
:100238006c0f00006c0f00006c0f00006c0f0000ca
:100248006c0f00006c0f00006c0f00006c0f0000ba
:100258006c0f00006c0f00006c0f00006c0f0000aa
:100268006c0f00006c0f00006c0f00006c0f00009a
:100278006c0f00006c0f00006c0f00006c0f00008a
:100288006c0f00006c0f00006c0f00006c0f00007a
:100298006c0f00006c0f00006c0f00006c0f00006a
:1002a8006c0f00006c0f00006c0f00006c0f00005a
:1002b8006c0f00006c0f00006c0f00006c0f00004a
:1002c8006c0f00006c0f00006c0f00006c0f00003a
:1002d8006c0f00006c0f00006c0f00006c0f00002a
:1002e8006c0f00006c0f00006c0f00006c0f00001a
:1002f8006c0f00006c0f00006c0f00006c0f00000a
:100308006c0f00006c0f00006c0f00006c0f0000f9
:100318006c0f00006c0f00006c0f00006c0f0000e9
:100328006c0f00006c0f00006c0f00006c0f0000d9
:100338006c0f00006c0f00006c0f00006c0f0000c9
:100348006c0f00006c0f00006c0f00006c0f0000b9
:100358006c0f00006c0f00006c0f00006c0f0000a9
:100368006c0f00006c0f00006c0f00006c0f000099
:100378006c0f00006c0f00006c0f00006c0f000089
:100388006c0f00006c0f00006c0f00006c0f000079
:100398006c0f00006c0f00006c0f00006c0f000069
:1003a8006c0f00006c0f00006c0f00006c0f000059
:1003b8006c0f00006c0f00006c0f00006c0f000049
:1003c8006c0f00006c0f00006c0f00006c0f000039
:1003d8006c0f00006c0f00006c0f00006c0f000029
:1003e8006c0f00006c0f00006c0f00006c0f000019
:0803f8006c0f00006c0f000007
:020000040000fa
:100400000fa520000eff27000e018800000000004d
:1004100000012000200288000c000700801e21003f
:100420000100200011000700100020000000e00083
:100430000200320080110200000000001c0d0200ca
:10044000000000000040da000000fe004440a90067
:10045000000020000000e000030032000000200047
:10046000a00188004440a800000006009101880017
:10047000800078000000eb0015003700e2804000ab
:1004800032a0b4009101ba00e280400032a0b40072
:100490009102ba00e280400032a0b4000002eb00fa
:1004a000472bde00f507b200602ce10004003a00a3
:1004b0000059eb008301e900fdff3e000400370016
:1004c0006128e100010032000082eb000400070017
:1004d0001101ba000200e000e8ff3a000000060047
:1004e0003159ba008301e9000c0032002159ba00e9
:1004f0008301e900080032000400e00003003a0034
:10050000e280400032a0b400f5ff370011d9ba00f4
:100510008301e900faff3a008100e800e180400031
:1005200032a0b400000006006022b80006022000dd
:100530000000d0008180d2000482d2008582d200e7
:100540000000a0000202520083825a000300310022
:100550000202420083824a000000a1000603e90073
:10056000f3ff3a0000000600020ab900001bb900c0
:100570000200b80081004200810043000000060034
:10058000889fbe008a9fbe003004be002005be00ca
:100590000404440085844c0006054d0087854d0009
:1005a0000898be000a90be000440e10005c8e100c2
:1005b00006d0e10007d8e1000200310068004000e9
:1005c0001008e8004f05be004f04be000000060002
:1005d0001000fa00889fbe008a9fbe000605be007c
:1005e0000404be003002be002003be00c4b79f005a
:1005f000d5b79f00e6b79f00f7b79f0008025200eb
:1006000089825a000a035b008b835b0084bf9f00d2
:1006100095bf9f00a6bf9f00b7bf9f000498be0074
:100620000698be00110020004fb29700dfb297007d
:100630006fb39700ffb397000820e10009a8e1001d
:100640000ab0e1000bb8e100010039008000eb00c6
:10065000108810004f05be004f04be000080fa0055
:10066000000006001400fa00889fbe008a9fbe00aa
:100670008c9fbe003f0007000605be000404be00bc
:100680000006eb00ccb79f00bcb79f00acb79f0043
:100690009cb79f008cb79f000d0420004fb39700bc
:1006a000bfb29700860343002fb29700e00f5300bc
:1006b00004003d003d0007000f004000b0ff0700b0
:1006c00003003700390007000f004000c0ff07009b
:1006d000cfb2970095bf9f00e08f52000900350010
:1006e0002b00070014002000050020006033b80034
:1006f0000000720081807200020173008381730028
:100700001c0007000c06e8008d0f5600e3ff3a00be
:100710001fba9700e00f520005003d000802be001e
:100720000a03be0000fe2f000f00400094ff0700e8
:100730004faa9700e00f520008003a000fb497004c
:100740009fb497002fb59700bfb59700d8b79f000b
:10075000e9b79f00fab79f008bbf9f000c0007000e
:100760004f06be004f05be004f04be000080fa00d9
:1007700000000600010007000000060090b79f007f
:10078000a1b79f00b2b79f00c3b79f00000006004b
:1007900001000700000006001fb09700afb09700ef
:1007a0003fb19700cfb19700000006004f2bde004d
:1007b00087037300a7b79f004f23de0085824200a6
:1007c0008502730095b79f00ffaa97004f2bde00ac
:1007d000040242000402730084b79f006faa9700ce
:1007e0004f23de008582420085027300f5af9f0033
:1007f000e9ff07004f18de00040242000002720009
:10080000e4af9f00e4ff0700000040008180480043
:100810000201490083814900d8ff07000802be0099
:100820000a03be0000fe2f0000000600881f7800ab
:1008300018002000881f78008aff07008f87e900d2
:100840004f04780000000600801feb0085ff0700c2
:100850008f87e90000000600889fbe008a9fbe00c7
:10086000e00f5000e08f5800e00f5900e08f590072
:100870000c003d006044b8006055b8000000540012
:1008800081805c0002015d0083815d001800200012
:100890001500070008003d00180007000004eb00e9
:1008a000050037000004eb000f00070002003d00c8
:1008b0001200070018002000dcff0700e00f5400c2
:1008c000060032006022b8006033b8000000520019
:1008d00081805a0002015b0083815b004f05be00ee
:1008e0004f04be0000000600e00f5200e08f5a00e7
:1008f000e00f5b00e08f5b00000006006044b80082
:100900006055b8000402540085825c0006035d0057
:1009100087835d0000000600889fbe008a9fbe009e
:100920008c1f7800e00f5000e08f5800e00f590056
:10093000e08f59000d003d006044b8006055b800dc
:100940000000540081805c0002015d0083815d0035
:100950001c0020000820e10009a8e1000ab0e10025
:100960000bb8e1000d003d00080037000006eb0069
:10097000e00f5200e08f5a00e00f5b00e08f5b0059
:1009800006003d006044b8006055b8000402540001
:1009900085825c0006035d0087835d00aaff070077
:1009a000e00f5600060032006022b8006033b80045
:1009b0000000520081805a0002015b0083815b00cd
:1009c0004f0678004f05be004f04be000000060031
:1009d000889fbe008a9fbe008c1f78000006eb0037
:1009e000e00f5000e08f5800e00f5900e08f5900f1
:1009f00007003d006044b8006055b8000000540096
:100a000081805c0002015d0083815d001c0020008c
:100a1000e00f5200e08f5a00e00f5b00e08f5b00b8
:100a200007003d006044b8006055b800040254005f
:100a300085825c0006035d0087835d000c00a200d8
:100a40000c000700e00f5600060032006022b800dc
:100a50006033b8000000520081805a0002015b0040
:100a600083815b004f0678004f05be004f04be0037
:100a700000000600889fbe008a9fbe008c9fbe00bb
:100a80000404b8000506b8008904460060854e00dd
:100a90000606b8000a054600e0854e000706b800c5
:100aa0008b054600040eb800890446000a854e00f6
:100ab000e0854d00050eb8000a0546008b854e0006
:100ac000060eb8008b0546000416b8000a0546005d
:100ad0008b854e000516b8008b054600041eb80035
:100ae0008b0546000800be000a01be004f06be008e
:0c0af0004f05be004f04be0000000600d1
:020000040000fa
:100afc00c108de000100e00002003a000000eb003b
:100b0c0000000600000278008102780002037800e1
:100b1c00830378009302800004007800850078003d
:100b2c00060178000200e00004003200ff3ffc00e8
:100b3c00301978008100e900fcff3a0004007800cd
:100b4c0085007800ff3ffc000008eb000080e80007
:100b5c008100e900fbff3a00040078008500780072
:100b6c00f8050400000000000400780085007800ff
:100b7c0024070400000000000400780085007800c1
:100b8c00b007040000000000040078008500780025
:100b9c006008040000000000040078000002eb0074
:100bac000100370014002000850078000601780051
:100bbc000200e00004003200ff3ffc003218780015
:100bcc008100e900fcff3a000400780093028800e1
:100bdc000000880007f0a700a2110400000000002c
:100bec0000000600ff3ffc001000a700edff3700df
:100bfc001000a0001000a600eaff37001000a100b2
:100c0c001000a700e7ff37001000a0001010a7008d
:100c1c00e4ff37001010a0001010a600e1ff370011
:100c2c001010a1001010a700deff37001010a0005c
:100c3c001020a700dbff37001020a0001020a6001a
:100c4c00d8ff37001020a1001020a700d5ff3700d7
:100c5c001020a0001030a700d2ff37001030a000e9
:100c6c001030a600cfff37001030a1001030a700c5
:100c7c00ccff37001030a0001040a700c9ff370090
:100c8c001040a0001040a600c6ff37001040a10085
:100c9c001040a700c3ff37001040a0001050a70061
:100cac00c0ff37001050a0001050a600bdff370049
:100cbc001050a1001050a700baff37001050a00030
:100ccc001060a700b7ff37001060a0001060a600ee
:100cdc00b4ff37001060a1001060a700b1ff37000f
:100cec001060a0001070a700aeff37001070a000bd
:100cfc001070a600abff37001070a1001070a70099
:100d0c00a8ff37001070a0001080a700a5ff3700c7
:100d1c001080a0001080a600a2ff37001080a10058
:100d2c001080a7009fff37001080a0001090a70034
:100d3c009cff37001090a0001090a60099ff370080
:100d4c001090a1001090a70096ff37001090a00003
:100d5c0010a0a70093ff370010a0a00010a0a600c1
:100d6c0090ff370010a0a10010a0a7008dff370046
:100d7c0010a0a00010b0a7008aff370010b0a00090
:100d8c0010b0a60087ff370010b0a10010b0a7006c
:100d9c0084ff370010b0a00010c0a70081ff3700ff
:100dac0010c0a00010c0a6007eff370010c0a1002c
:100dbc0010c0a7007bff370010c0a00010d0a70008
:100dcc0078ff370010d0a00010d0a60075ff3700b8
:100ddc0010d0a10010d0a70072ff370010d0a000d7
:100dec0010e0a7006fff370010e0a00010e0a60095
:100dfc006cff370010e0a10010e0a70069ff37007e
:100e0c0010e0a00010f0a70066ff370010f0a00063
:100e1c0010f0a60063ff370010f0a10010f0a7003f
:100e2c0060ff370010f0a0000080e8008100e900ae
:100e3c006cff3a00ba05040000000000ff3ffc0004
:100e4c001000a60057ff37001000a1001000a000f2
:100e5c001010a60053ff37001010a1001010a000b6
:100e6c001020a6004fff37001020a1001020a0007a
:100e7c001030a6004bff37001030a1001030a0003e
:100e8c001040a60047ff37001040a1001040a00002
:100e9c001050a60043ff37001050a1001050a000c6
:100eac001060a6003fff37001060a1001060a0008a
:100ebc001070a6003bff37001070a1001070a0004e
:100ecc001080a60037ff37001080a1001080a00012
:100edc001090a60033ff37001090a1001090a000d6
:100eec0010a0a6002fff370010a0a10010a0a0009a
:100efc0010b0a6002bff370010b0a10010b0a0005e
:100f0c0010c0a60027ff370010c0a10010c0a00021
:100f1c0010d0a60023ff370010d0a10010d0a000e5
:100f2c0010e0a6001fff370010e0a10010e0a000a9
:100f3c0010f0a6001bff370010f0a10010f0a0006d
:100f4c000080e8008100e900bcff3a00c205040003
:100f5c00000000000080400000804000ff3ffc00cb
:100f6c000080e90010f0a6000eff370010f0a10081
:100f7c0010f0a00010f0a10010e0a60009ff37004f
:100f8c0010e0a10010e0a00010e0a10010d0a6001d
:100f9c0004ff370010d0a10010d0a00010d0a10089
:100fac0010c0a600fffe370010c0a10010c0a000aa
:100fbc0010c0a10010b0a600fafe370010b0a100be
:100fcc0010b0a00010b0a10010a0a600f5fe3700d4
:100fdc0010a0a10010a0a00010a0a1001090a600cd
:100fec00f0fe37001090a1001090a0001090a1000e
:100ffc001080a600ebfe37001080a1001080a0002e
:10100c001080a1001070a600e6fe37001070a10041
:10101c001070a0001070a1001060a600e1fe370057
:10102c001060a1001060a0001060a1001050a6007c
:10103c00dcfe37001050a1001050a0001050a10091
:10104c001040a600d7fe37001040a1001040a000b1
:10105c001040a1001030a600d2fe37001030a100c5
:10106c001030a0001030a1001020a600cdfe3700db
:10107c001020a1001020a0001020a1001010a6002c
:10108c00c8fe37001010a1001010a0001010a10015
:10109c001000a600c3fe37001000a1001000a00035
:1010ac001000a1008100e900acff3a00ca05040061
:1010bc00000000000080400000804000ff3ffc006a
:1010cc000080e90010f0a700b6fe370010f0a00079
:1010dc0010f0a10010e0a700b2fe370010e0a00055
:1010ec0010e0a10010d0a700aefe370010d0a00079
:1010fc0010d0a10010c0a700aafe370010c0a0009d
:10110c0010c0a10010b0a700a6fe370010b0a000c0
:10111c0010b0a10010a0a700a2fe370010a0a000e4
:10112c0010a0a1001090a7009efe37001090a00008
:10113c001090a1001080a7009afe37001080a0002c
:10114c001080a1001070a70096fe37001070a00050
:10115c001070a1001060a70092fe37001060a00074
:10116c001060a1001050a7008efe37001050a00098
:10117c001050a1001040a7008afe37001040a000bc
:10118c001040a1001030a70086fe37001030a000e0
:10119c001030a1001020a70082fe37001020a00004
:1011ac001020a1001010a7007efe37001010a00028
:1011bc001010a1001000a7007afe37001000a0004c
:1011cc001000a1008100e900bcff3a00d205040028
:1011dc0000000000c108de000100e00002003a003f
:1011ec000000eb000000060000027800810278008d
:1011fc0002037800830378009302800004007800d7
:10120c0085007800060178000200e000040032003e
:10121c00ff3ffc00301978008100e900fcff3a0028
:10122c000400780085007800ff3ffc000008eb000c
:10123c000080e8008100e900fbff3a000400780020
:10124c0085007800020a0400000000000400780009
:10125c00850078006e0a0400000000000700a6005c
:10126c00090037000400780085007800ff3ffc007f
:10127c00100178000200e00017003a000080e8003e
:10128c008100e900f9ff3a0004007800850078003d
:10129c00920904000000000004007800850078002a
:1012ac00de0a0400000000000400780085007800cd
:1012bc00ff3ffc00100178000200e00006003a003d
:1012cc000080e8008100e900f9ff3a000400780092
:1012dc000002eb00010037001400200085007800ac
:1012ec00060178000200e00004003200ff3ffc0021
:1012fc00321878008100e900fcff3a000400780005
:10130c00930288000000880007f0a70096110400e3
:10131c00000000000000060000804000008040003b
:10132c00ff3ffc000080e90010f0a700eaff370047
:10133c0010f0a00010e0a700e7ff370010e0a000bd
:10134c0010d0a700e4ff370010d0a00010c0a700f9
:10135c00e1ff370010c0a00010b0a700deff37007f
:10136c0010b0a00010a0a700dbff370010a0a00059
:10137c001090a700d8ff37001090a0001080a70095
:10138c00d5ff37001080a0001070a700d2ff3700e7
:10139c001070a0001060a700cfff37001060a000f5
:1013ac001050a700ccff37001050a0001040a70031
:1013bc00c9ff37001040a0001030a700c6ff37004f
:1013cc001030a0001020a700c3ff37001020a00091
:1013dc001010a700c0ff37001010a0001000a700cd
:1013ec00bdff37001000a0008100e900ccff3a00df
:1013fc005209040000000000ff3ffc001000a70091
:10140c00b5ff37001000a0001010a700b2ff370086
:10141c001010a0001020a700afff37001020a00074
:10142c001030a700acff37001030a0001040a70010
:10143c00a9ff37001040a0001050a700a6ff3700ee
:10144c001050a0001060a700a3ff37001060a00090
:10145c001070a700a0ff37001070a0001080a7002c
:10146c009dff37001080a0001090a7009aff370056
:10147c001090a00010a0a70097ff370010a0a000ac
:10148c0010b0a70094ff370010b0a00010c0a70048
:10149c0091ff370010c0a00010d0a7008eff3700be
:1014ac0010d0a00010e0a7008bff370010e0a000c8
:1014bc0010f0a70088ff370010f0a0000080e800b3
:1014cc008100e900ccff3a002c0904000000000068
:1014dc000080400000804000ff3ffc000080e900dd
:1014ec0010f0a6007cff370010f0a10010e0a60061
:1014fc0079ff370010e0a10010d0a60076ff37006e
:10150c0010d0a10010c0a60073ff370010c0a100be
:10151c0010b0a60070ff370010b0a10010a0a600fc
:10152c006dff370010a0a1001090a6006aff3700d5
:10153c001090a1001080a60067ff37001080a1005a
:10154c001070a60064ff37001070a1001060a60098
:10155c0061ff37001060a1001050a6005eff37003d
:10156c001050a1001040a6005bff37001040a100f6
:10157c001030a60058ff37001030a1001020a60034
:10158c0055ff37001020a1001010a60052ff3700a5
:10159c001010a1001000a6004fff37001000a10092
:1015ac008100e900ccff3a0034090400000000007f
:1015bc00ff3ffc001000a60047ff37001000a10001
:1015cc001010a60044ff37001010a1001020a60038
:1015dc0041ff37001020a1001030a6003eff37005d
:1015ec001030a1001040a6003bff37001040a100b6
:1015fc001050a60038ff37001050a1001060a60054
:10160c0035ff37001060a1001070a60032ff3700c4
:10161c001070a1001080a6002fff37001080a100d1
:10162c001090a6002cff37001090a10010a0a6006f
:10163c0029ff370010a0a10010b0a60026ff37002c
:10164c0010b0a10010c0a60023ff370010c0a100ed
:10165c0010d0a60020ff370010d0a10010e0a6008b
:10166c001dff370010e0a10010f0a6001aff370094
:10167c0010f0a1000080e8008100e900ccff3a00e6
:10168c005a09040000000000a0aa2a00a1aa2a00fe
:10169c000100e100e3003a005055250051552500aa
:1016ac000100e100df003a0082007800a2aa2a00c3
:1016bc00a0aa2a000010e100da003a00010178002b
:1016cc008200780052552500505525000010e1008d
:1016dc00d4003a000101780083007800a3aa2a0004
:1016ec00a0aa2a000018e100ce003a00810178007f
:1016fc008300780053552500505525000018e10053
:10170c00c8003a008101780084007800a4aa2a005d
:10171c00a0aa2a000020e100c2003a0001027800d1
:10172c008400780054552500505525000020e10018
:10173c00bc003a000102780085007800a5aa2a00b6
:10174c00a0aa2a000028e100b6003a008102780025
:10175c008500780055552500505525000028e100de
:10176c00b0003a008102780086007800a6aa2a0010
:10177c00a0aa2a000030e100aa003a000103780078
:10178c008600780056552500505525000030e100a4
:10179c00a4003a000103780087007800a7aa2a0069
:1017ac00a0aa2a000038e1009e003a0081037800cc
:1017bc008700780057552500505525000038e1006a
:1017cc0098003a008103780097028000ff3ffc00ec
:1017dc000f017800030180008007eb0001018000fd
:1017ec00a0aa2a0000018800000000002000e300ed
:1017fc008c003a0001018800010180004055250051
:10180c0000018800000000002000e30085003a0081
:10181c0001018800e0ff2f00000188008f00780094
:10182c00afaa2a00a0aa2a000078e1007d003a00a5
:10183c00810778008f0078004f5525004055250012
:10184c000078e10077003a00810778008207780081
:10185c000301880097028800000088008800780047
:10186c00a8aa2a00a0aa2a000040e1006d003a00b4
:10187c000104780088007800585525005055250043
:10188c000040e10067003a0001047800890078000c
:10189c00a9aa2a00a0aa2a000048e10061003a0087
:1018ac008104780089007800595525005055250091
:1018bc000048e1005b003a00810478008a0078005f
:1018cc00aaaa2a00a0aa2a000050e10055003a005a
:1018dc00010578008a0078005a55250050552500de
:1018ec000050e1004f003a00010578008b007800b1
:1018fc00abaa2a00a0aa2a000058e10049003a002d
:10190c00810578008b0078005b552500505525002b
:10191c000058e10043003a00810578008c00780003
:10192c00acaa2a00a0aa2a000060e1003d003a00ff
:10193c00010678008c0078005c5525005055250078
:10194c000060e10037003a00010678008d00780055
:10195c00adaa2a00a0aa2a000068e10031003a00d2
:10196c00810678008d0078005d55250050552500c6
:10197c000068e1002b003a00810678008e007800a8
:10198c00aeaa2a00a0aa2a000070e10025003a00a5
:10199c00010778008e0078005e5525005055250013
:1019ac000070e1001f003a000107780091018000ef
:1019bc00a00a200090018800000000003240e300e3
:1019cc0018003a0091018800910180005005200018
:1019dc0090018800000000003240e30011003a0042
:1019ec0091018800b1018000a0aa2200b0018800fa
:1019fc00000000003600e3000a003a00b101880044
:101a0c00b101800050552100b00188000000000099
:101a1c003600e30003003a00b10188000000eb003f
:101a2c0000000600f0ff2f00000006000200fa0084
:101a3c00881f780024408000e00f52000100320023
:101a4c00ffff37004087ab0001003200ffff37007b
:101a5c00dc0e020000000000180020001440800082
:101a6c00e00f520001003200ffff370094028000ab
:101a7c00e4bf9f00ff3ffc0018408800208020003e
:101a8c0054550200000000000228ec0020802000c9
:101a9c00aaaa0200000000006fba97009402880006
:101aac000060fe004a0b020000000000e00f500036
:101abc0001003200ffff37000120200000852000cc
:101acc003411020000000000e00f50000100320051
:101adc00ffff37008801780000017800012020000a
:101aec0000852000f0080200000000008001780052
:101afc00e08f510001003200ffff37000301780036
:101b0c0001202000008520007e050200000000005e
:101b1c00e00f500001003200ffff370001202000d1
:101b2c0000c5200034110200000000008001780084
:101b3c00e08f510001003200ffff370002852000ca
:101b4c000120200000c52000f00802000000000069
:101b5c00e00f500001003200ffff370088017800d1
:101b6c00028520000120200000c52000f0080200a2
:101b7c000000000080017800e08f5100010032006d
:101b8c00ffff3700028520000120200000c5200047
:101b9c007e05020000000000e00f50000100320042
:101bac00ffff37000082eb00021020000300200032
:101bbc0000002000010020000810020000000000be
:101bcc000040880004408000020c2000030020002c
:101bdc00002020000100200008100200000000007e
:101bec00004088000440800002a820000300200070
:101bfc00002c200001002000081002000000000052
:101c0c00004088005400200002002800030020003f
:101c1c0000802400811e20008410020000000000bf
:101c2c00e00f500001003200ffff3700c402a80093
:101c3c0040012000ce0e020000000000c402a900ea
:101c4c00c422a80040012000ce0e020000000000bb
:101c5c00c422a900c442a80040012000ce0e0200fc
:101c6c0000000000c442a900c462a800400120008a
:101c7c00ce0e020000000000c462a900c482a800bd
:101c8c0040012000ce0e020000000000c482a9001a
:101c9c00c4a2a80040012000ce0e020000000000eb
:101cac00c4a2a900c4c2a80040012000ce0e0200ac
:101cbc0000000000c4c2a900c4e2a800400120003a
:101ccc00ce0e020000000000c4e2a900c4e2a8008d
:101cdc0040012000ce0e020000000000c4e2a9006a
:101cec00c4c2a80040012000ce0e0200000000007b
:101cfc00c4c2a900c4a2a80040012000ce0e02005c
:101d0c0000000000c4a2a900c482a8004001200069
:101d1c00ce0e020000000000c482a900c462a8001c
:101d2c0040012000ce0e020000000000c462a90099
:101d3c00c442a80040012000ce0e020000000000aa
:101d4c00c442a900c422a80040012000ce0e02000b
:101d5c0000000000c422a900c402a8004001200019
:101d6c00ce0e020000000000c402a9003bff3700a9
:101d7c004401200002003700803e090000000000f2
:101d8c000402e900e10f4200fbff3a0000000600ec
:101d9c0003003700803e0900000000000000e9004d
:101dac00e00f5000fbff3a00000006000082eb0041
:101dbc006419880054198800e4012000343a880022
:101dcc000421ef000421a80005e1a80024742000e0
:101ddc00144278000414a0000482fb007605200055
:101dec006504200027742000854b7800864b780012
:101dfc00844b780040a7a8000060fe0000f02f0084
:101e0c00c422b600c022b600c402a800d8ff070046
:101e1c00c402a900c422a800d5ff0700c422a9004f
:101e2c00c442a800d2ff0700c442a900c462a800a3
:101e3c00cfff0700c462a900c482a800ccff070032
:101e4c00c482a900c4a2a800c9ff0700c4a2a900ab
:101e5c00c4c2a800c6ff0700c4c2a900c4e2a800ff
:101e6c00c3ff0700c4e2a900c4e2a800c0ff07003a
:101e7c00c4e2a900c4c2a800bdff0700c4c2a900e7
:101e8c00c4a2a800baff0700c4a2a900c482a8007b
:101e9c00b7ff0700c482a900c462a800b4ff070002
:101eac00c462a900c442a800b1ff0700c442a90043
:101ebc00c422a800aeff0700c422a900c402a800d7
:101ecc00abff0700c402a900000006003400f800b4
:101edc00881f780008002000a80188004f047800b3
:101eec00000000000000000000000000fcff3700b4
:101efc003400f800881f780008002000a801880032
:101f0c004f047800000000000000000000000000fa
:101f1c00fcff37003400f800881f78000800200010
:101f2c00a80188004f0478000000000000000000a9
:101f3c0000000000fcff37003400f800881f780018
:101f4c0008002000a80188004f0478000000000061
:101f5c000000000000000000fcff37003400f80017
:101f6c00881f780008002000a80188004f04780022
:101f7c00000000000000000000000000fcff370023
:101f8c0004c1b30056002800cf0ade00e00f500059
:101f9c0001003d000504a20081804000e0cf52000a
:101fac0001003200868068000442e9000200320021
:101fbc0000004000f4ff370001007800000006002c
:101fcc00004278000100780085c0b300570028005b
:101fdc004f03de00e04f520001003d000604a2005a
:101fec0000004000e04f5300010032000700680081
:101ffc008542e9000200320004424200f4ff37003f
:10200c00000006000400fa00889fbe008a1f7800ba
:10201c008304d1000284d3000001be0004007800c8
:10202c00130037008001fd0032e0b7008001fd0095
:10203c00020578009282ba00800078000540780092
:10204c00b2bf9f00c3bf9f00ddff07008000780078
:10205c001a00ba00caff07003fb99700cfb9970022
:10206c0062014100e081490061045400e0845c009d
:10207c00e00f5400e08f5c00eaff3a004f05780057
:10208c004f04be000080fa00000006000400fa00b5
:10209c00889fbe008304d1000284d3000001be00df
:1020ac00040078000f0037008001fd0032e0b7001b
:1020bc008001fd009202ba008000780005007800d3
:1020cc00c2bf9f00d3bf9f00adff07004fb9970061
:1020dc00dfb9970062014100e081490061045400be
:1020ec00e0845c00e00f5400e08f5c00eeff3a00ef
:1020fc004f04be000080fa00000006001000fa0039
:10210c00889fbe008a9fbe008c9fbe000005be004b
:10211c000200be008406780042012000030020006b
:10212c00b4020200000000000004be00823e200049
:10213c00030020009402020000000000000678005a
:10214c00e00f560001003a001c0020000c00780043
:10215c00010020000200200003002000eab79f00cd
:10216c00fbb79f008003eb0087bf9f000002eb00d2
:10217c0094bf9f006fb29700ffb297000fbb970000
:10218c009fbb9700e8040200000000000802be009c
:10219c001fbc97000803780088037800160402001f
:1021ac0000000000a0b79f00b1b79f000001be0067
:1021bc006168b800b402020000000000823e2000fa
:1021cc00030020009402020000000000c0b79f0032
:1021dc00d1b79f00011020000c007800b61102004e
:1021ec00000000006102b80020002000e00f520047
:1021fc00e08f5a00140032002fb09700bfb0970048
:10220c004fb39700dfb39700060350008783580045
:10221c0010002000860f5200878f5a000a003900e8
:10222c002fb39700bfb397004fb19700dfb1970062
:10223c000203430083834b00860f5200878f5a00a2
:10224c0001003e001fb897004f06be004f05be00b0
:10225c004f04be000080fa0000000600c208de0039
:10226c000100e00002003a000000eb000000060054
:10227c0052552500a3aa2a00960280004000fc00bb
:10228c001002780090029000020878001300980069
:10229c00900378000710e10014003a0090039000be
:1022ac000718e10011003a000308780012009800aa
:1022bc00900378000718e1000c003a00900390009e
:1022cc000710e10009003a00040878001500980096
:1022dc009602880000008800640040008100e9003c
:1022ec00e6ff3a000000eb000000060010002000a2
:1022fc00000006000000eb00418020008008780000
:10230c0000802000018027000001eb001300280052
:10231c00f0080400000000000000e00006003a0095
:10232c0000802000018027000001eb000300280042
:10233c007e05040000000000418020008008780029
:10234c00801e210001002000360202000000000067
:10235c001c0d0200000000000040da000000fe002e
:10236c000001780081017800940280000000eb00ed
:10237c008009eb00ff3ffc000000e8000e0032007b
:10238c00930078000100e000faff32000000eb003f
:10239c008009eb00ff3ffc000000e8000600320063
:1023ac000000000000000000000000009300780016
:1023bc000208e100f7ff3a00940288000000880050
:0423cc000000060007
:020000040000fa
:1023d00002080000020000000000000000080000e9
:0c23e000020000000000000000000000ef
:020000040000fa
:0caaa400000006001008e9000000060099
:020000040000fa
:020000040001f9
:0c555000000006001008e9000000060042
:020000040000fa
:0200000401f009
:04000000ffff0000fe
:020000040000fa
:0200000401f009
:04000400ffff0000fa
:020000040000fa
:0200000401f009
:04000800ffff0000f6
:020000040000fa
:0200000401f009
:04000c00fbff0000f6
:020000040000fa
:0200000401f009
:04001000fdff0000f0
:020000040000fa
:0200000401f009
:0400140077ff000072
:020000040000fa
:0200000401f009
:04001c00dfff000002
:00000001FF
